:020000040000FA
:0400000080315028D3
:1000060001347E14803101302E00991E00398F1E76
:100016000039091C0F28102830282000DC01220096
:100026001908F0007008F20079088C3EF000F10122
:100036002330F13D70088600710887007208810040
:100046000130F0007008F90745307206031D2C28B0
:100056002D283028F801F80AF90101302E00961EE5
:1000660000398C1E0039091C39283A284E282000F0
:100076009E132E008C1203102000191C0314031863
:1000860045284828200019144A2820001910DC01A8
:10009600DC0ADB01DB0A7E10090080315228803140
:1000A60003208031FA007D3084008730850041309E
:1000B6008600003087000030FF0019308F31F427AA
:1000C60080318C308400233085006430FE0000309F
:1000D600FF008F31E8278031F801F901DA01DB01F1
:1000E600DC01A0308400003085005030FE00003076
:1000F600FF008F31E82780317E1020008431332CB9
:1001060005302000BD003D08A2001030BE003E08AC
:10011600A300013087319627803105302000BD00CD
:100126003D08F5000130863148268031A030F500C3
:100136000030F6008631B1268031DF308F31D62788
:10014600803108302000BD003D08F50001308631C1
:100156004826803109302000B4000030B500B030A8
:100166008231442280312000240883319223803159
:1001760011302000BD003D08F500013086314826CB
:100186008031B030F5000030F6008631B12680317E
:1001960025308F31D627803105302000BD003D083F
:1001A600A2001030BE003E08A30002308731962719
:1001B600803105302000BD003D08F5000230863153
:1001C60048268031A430F5000030F6008631B1268D
:1001D6008031DF308F31D627803108302000BD00D6
:1001E6003D08F5000230863148268031093020006E
:1001F600B4000030B500B430823144228031200092
:10020600240883319223803111302000BD003D083F
:10021600F5000230863148268031B430F5000030D2
:10022600F6008631B126803125308F31D6278031D0
:1002360006302000BD003D08A2000F30BE003E087B
:10024600A300033087319627803106302000BD0099
:100256003D08F5000330863148268031BC30F50074
:100266000030F6008631B126803125308F31D62711
:1002760080310B302000BD003D08F500033086318B
:10028600482680310A302000B4000030B500BC306A
:100296008231442280312000240883319223803128
:1002A60007302000BD003D08A2000E30BE003E080B
:1002B600A300043087319627803107302000BD0027
:1002C6003D08F5000430863148268031B830F50007
:1002D6000030F6008631B126803125308F31D627A1
:1002E60080310B302000BD003D08F500043086311A
:1002F600482680310A302000B4000030B500B830FE
:1003060082314422803120002408833192238031B7
:1003160008000030F300F4005030F5000030F6001D
:10032600A0308231ED2281312000B801B9018C3034
:10033600F3002330F4003B30F5000030F60087313F
:10034600412781317308743E2000B600DC30743DCD
:10035600B7003708B4003608B300B501012A2000FB
:100366003508AB000130AB35FF3E031DB6292B35F2
:10037600A03EA0000030A1008C30AC002330AD00C0
:1003860038082C07AE0039082D3DAF002E08A20014
:100396002F08A3003408A5003308A400863184265C
:1003A600813101302000AB002B08B5073608013E2D
:1003B600B8000030373DB9008D30AB002330AC00BB
:1003C60038082B07AD0039082C3DAE002D08F30088
:1003D6002E08F4003B30F5000030F6008731412747
:1003E60081317308743E2000B600DC30743DB700DE
:1003F60038083602B3003908373BB4003408803A6F
:10040600AB0080302B02031D0A2A01303302031889
:100416000D2A0E2AB2298C30F3002330F400453021
:10042600F5000030F6008731412781317308743EAC
:100436002000B100DC30743DB2003508AB0001305D
:10044600AB35FF3E031D232A2B35A03EA00000300E
:10045600A1008C30AC002330AD0038082C07AE006C
:1004660039082D3DAF002E08A2002F08A30038083A
:100476003102A4003908323BA50086318426813139
:1004860008002000B300B101B201AA01AB014F2A56
:100496000130A6002608B307B001B00A330886006B
:1004A6008701203001060319592A5A2A6E2A330871
:1004B600860087010108F73EA600FF3003180030CA
:1004C600A70000302702053003192602031C6C2AF8
:1004D6006D2A6E2AB0013008A600A7012608AC00D6
:1004E6002708AD002C082D04031D7A2A7B2A4B2AE7
:1004F600852A0130AA000030AB000130A60026088C
:10050600B307B52A3308860087010108A600A701AC
:100516002708003A0319902AB52A26082B3A031908
:10052600802A063A03197C2AB52A330886008701F1
:100536003208F4003108F3000A30F5000030F60006
:100546008631FE26823174082000A7000108730256
:10055600A600031CA7032608303EB1000030273D45
:10056600B200802A3308860087010108D03EA60023
:10057600FF3003180030A700003027020A300319A5
:100586002602031CC72AC92A0130CA2A0030A8003D
:10059600A9012808AE002908AF002E082F04031D64
:1005A600D52AD62A982A2A082B04031DDB2ADC2AF8
:1005B600E82A3109A6003209A700A60A0319A70AE4
:1005C6002608A4002708A500EC2A3208A500310851
:1005D600A40008002000A2002208A0002008A50010
:1005E60075087604031DF82AF92AFA2A912B73084E
:1005F600A000250886008701200881007308A00056
:1006060075082507A1002108FF3E860087012008FE
:100616008100003076020330031975020318142B8B
:10062600152B162B912B7308A000250A860087012F
:10063600200881007308A0002508023E8600870175
:10064600200881007308A00075082507A10021086D
:10065600FE3E86008701200881007308A000750809
:100666002507A1002108FD3E86008701200881009C
:10067600003076020730031975020318432B442B0A
:10068600452B912B7308A0002508033E86008701A1
:10069600200881007308A00075082507A10021081D
:1006A600FC3E860087012008810000307602093072
:1006B600031975020318602B612B622B912B2509F8
:1006C600A0002609A100A00A0319A10A03302005EB
:1006D600A30000302105A4002308A0002008A507D8
:1006E6002308F5022408F63BFC30F505FF30F60535
:1006F6008B2B7308A000250886008701200881003F
:100706000130F5020030F63B0130A0002008A507B5
:1007160075087604031D902B912B7C2B0800200076
:10072600B8006430A2000030A3003808B600B70154
:100736003608F3003708F4003508F6003408F500EB
:100746008631FE26833174082000A5007308A400B4
:1007560086310B26833120002308BA002208B9000F
:10076600BB01BC01282C3B083C04031DBB2BBC2B46
:10077600D92B39083A04031DC12BC22BC72B0030D5
:100786008F31D62783311F2C3A08803AB600803045
:100796003602031DD02B01303902031CD32BD42B78
:1007A6001F2C03308F31D62783311F2C3408FF3E90
:1007B600B600FF30353DB70037083C02031DE52B78
:1007C60036083B020318E82BE92B002C3A08803A3E
:1007D600B60080303602031DF22B013039020318B1
:1007E600F52BF62BFB2B01308F31D62783311F2CAF
:1007F600FF308F31D62783311F2C3408FF3EB600D9
:10080600FF30353DB7003C083706031D0C2C3B086E
:100816003606031D0F2C102C1F2C39033A0403191E
:10082600152C162C1B2C02308F31D62783311F2C0A
:1008360004308F31D627833101302000BB070030CA
:10084600BC3DFF30B907FF30BA3D35083C02031DF9
:100856002E2C34083B02031C312C322CB62B0800FC
:1008660031000D088F3960388D00F0308D05130882
:10087600F8390238930085315C2584318431D224DD
:1008860084318731EC2784318731DA2784318B171D
:100896000B1720009E179410991014101910780841
:1008A6000319562C572C6B2C2000991481318C215E
:1008B60084318531B5258431F801200099104830FE
:1008C6009D00E5309C009E1B692C6A2C6B2C9E17A4
:1008D60020005C080319702C712C522C5B0803193C
:1008E600752C762C522C01308F31DF2784318030E5
:1008F6008F31DF2784312000DB01FA01FA0AB53097
:10090600BF000530C00005304006031D8C2CB530F5
:100916003F06031D8F2C902CB02C0A30BF003F08D9
:10092600F50002308631482684311730F5009030C4
:10093600F6008631B126843106302000BF003F081C
:10094600F5000330863148268431FC30F5008730C7
:10095600F6008631B1268431522C0830BF003F089C
:10096600F50001308631482684311730F500903085
:10097600F6008631B126843103302000BF003F08DF
:10098600F5000230863148268431FC30F500873088
:10099600F6008631B1268431522C80315028413000
:1009A6008600003087002330840000308500173031
:1009B6002000A20016001A00A20BDD2C40308F3159
:1009C600DF2784312000BC013C08233E86008701D6
:1009D600083001060319F02CF12C0F2D3C08233E9C
:1009E600860087010F3001060319FA2CFB2C0F2D08
:1009F6003C08233E86008701023001060319042DB8
:100A0600052D0F2D3C08233E860087011E3001066A
:100A1600031D0E2D0F2D242DBA013C08233E860002
:100A2600870101088F31D627843101302000A200CA
:100A36002208BA0704303A02031C222D232D102D5A
:100A46004A2D3C08233E860087010108031D2C2DF4
:100A56002D2D422DBB013C08233E8600870101084F
:100A66008F31D627843101302000A2002208BB072F
:100A760006303B02031C402D412D2E2D4A2D3C08ED
:100A8600233E8600870101088F31D6278431013045
:100A96002000A2002208BC0717303C02031C542D7C
:100AA600552DE72CF501F50A0130863148268431AB
:100AB6000800200094121413941399121913991311
:100AC600C330F700CD30890B662DF70B662D00007D
:100AD60030308F31DF2785310830F700CA30890B77
:100AE600722DF70B722D30308F31DF278531323082
:100AF600890B7B2D30308F31DF2785313230890BE2
:100B0600822D38308F31DF2785312130890B892DB1
:100B16000000F501F60100308631D92685312130F5
:100B2600890B932D000001308F31DF27853104308A
:100B3600F700E430890B9D2DF70B9D2D0032063012
:100B46008F31DF2785312130890BA72D0000F50174
:100B5600F60101308631D92685311030890BB12D49
:100B6600003208007A080319B92DBA2D072E013074
:100B76008F31DF278531F501F50A013086314826A8
:100B860085310D302000A0009030A1000430A20075
:100B96000030A300873160278531F501F50A023060
:100BA60086314826853112302000A0009030A10001
:100BB6000430A2000030A300873160278531F5019B
:100BC600F50A033086314826853107302000A0001B
:100BD6009030A1000530A2000030A30087316027C5
:100BE6008531F501F50A0430863148268531003015
:100BF6002000A0009030A1000630A2000030A30023
:100C0600873160278531FA018031832085310800DC
:100C16002000A601A701220823040319132E142E6F
:100C2600432EA801A80A202E0130A235A30D890B58
:100C3600182E0130F7007708A807A31F232E242EAD
:100C4600172E0130A635A70D890B252E2308250260
:100C5600031D2F2E22082402031C322E332E382E7B
:100C66002208A4022308A53B26140130A336A20CB1
:100C7600890B392E0130A802031D422E432E242E45
:100C86002708A3002608A20008002000A0005F2E67
:100C96008030F6007608A100752EC030F600760882
:100CA600A100752E9430F6007608A100752ED4307A
:100CB600F6007608A100752E2008F600F7017708E1
:100CC600003A0319672E752E7608013A03194B2E42
:100CD600033A0319502E013A0319552E073A031900
:100CE6005A2E752E21087507FF3EF6007608A100DC
:100CF60021088F31DF2786311A30890B802E00328A
:100D0600080020002308AA002208A9002108A8003C
:100D16002008A700A42E290886002A0887000108B3
:100D2600F3007308A6000130A9070030AA3D270882
:100D3600860028088700260881000130A7070030B2
:100D4600A83D0130A4020030A53B240A031DAF2EA6
:100D5600250A031DAF2EB02E8E2E0800F701C72ED2
:100D66007608A1007508A0007708200784002108EE
:100D76000318210A850000088F31D62786310130F5
:100D86002000A0002008F70776082000A1007508BB
:100D9600A00077082007840021080318210A85008F
:100DA6001200031DD72ED82EB32E08002000A50052
:100DB60008307604A0007508A1000130A135890B22
:100DC600E12E08302104A2002508A3000130A33536
:100DD600FF3E031DEA2E2335220420040838A40012
:100DE6002408A60026088F31DF2786311030890BAC
:100DF600FA2E003208002000A001A101731C042F66
:100E0600052F0A2F75082000A0077608A13D01309E
:100E1600F535F60D890B0B2F0130F436F30C890BE3
:100E2600102F73087404031D192F1A2F012F200089
:100E36002108F4002008F3000800F701F70A203023
:100E4600730674040319282F292F392F7308F73EC8
:100E5600F500FF30743DF6000030760205300319C8
:100E66007502031C372F382F392FF7017708F50045
:100E7600F6017508F3007608F4000800730886008A
:100E86007408870001087506031D4A2F4B2F4C2F47
:100E96005F2F74082000A1007308A000F30A03194D
:100EA600F40A20088600210887000108031D5C2F2C
:100EB6005D2F412FF301F4010800F501F601712FB2
:100EC6002008750784002108763D850000088F31CB
:100ED600D62787310130F5070030F63D200023087C
:100EE6007602031D782F22087502031C7B2F7C2FA8
:100EF600632F0800033406340834063403341F34E1
:100F060000341F34183404340234043418340334DF
:100F160007340F340734033418341C341E341C349D
:100F26001834B53405342000A5002208A40024088E
:100F3600F5002508863148268731A82F20308F31C5
:100F4600D627873101302000A30220002308031D85
:100F5600AD2FAE2FA12F08007308D03E2000A000B1
:100F6600FF30743DA100003021020A30031920022F
:100F7600031CBE2FC02F0130C12F0030A200A301D9
:100F86002208F3002308F4000800F3002000991358
:100F96009201730897009917A630890BD02F00325B
:100FA60020009913A630890BD62F003208002000A6
:100FB6001E161F081F3940389F001F08F0390638D3
:100FC6009F0048309D00E5309C002E0096168C123E
:100FD600080022001E151E1200309C0019309B00CE
:100FE6009D171D163E00CE13200093172E0099164E
:100FF600080063346F346E346E346534633474348D
:0A10060069346F346E340034003496
:101FAC00F40020009916191374088731C8278F3153
:101FBC000800F40020009912191374088731C827FF
:101FCC008F3108006400800101310130FE020030C5
:101FDC00FF3B7F087E04031DE92F0034FE00120036
:101FEC001E000130FE020030FF3B7F087E04031D03
:101FFC00F52F003453344434523441344D343A3494
:10200C0000345634523441344D343A340034433471
:10201C00503455343A3400344734503455343A340F
:0A202C0000346E346F3400340034C9
:020000040001F9
:0A000E008C3FFF3F9F3FFF3FFF3F85
:00000001FF
